:100000000C942A000C9434000C9434000C943400AA
:100010000C9434000C9434000C9434000C94340090
:100020000C9434000C9434000C9434000C94340080
:100030000C9434000C9434000C9434000C94340070
:100040000C9434000C9434000C9434000C94340060
:100050000C94340011241FBECFE5D8E0DEBFCDBF25
:100060000E943B000C9462000C94000098B381E065
:10007000892788BB089581E08ABB12BE87BB85E0D3
:1000800083BF8FEF8CBF89B7826089BF789480E08F
:1000900090E0C1E008B601FE08C001968A309105E3
:1000A00021F40E94360080E090E02BB32C272BBB7C
:1000B0002FEF33ED40E3215030404040E1F700C0E6
:0800C0000000E8CFF894FFCF27
:00000001FF
