:100000000C942A000C9436000C9434000C943400A8
:100010000C9434000C9434000C9434000C94340090
:100020000C9434000C9434000C9434000C94340080
:100030000C9434000C9434000C9434000C94340070
:100040000C9434000C9434000C9434000C94340060
:100050000C94340011241FBECFE5D8E0DEBFCDBF25
:100060000E9448000C94A0000C9400001F920F9274
:100070000FB60F9211248F939F939BB38FE0892724
:100080008BBB9F918F910F900FBE0F901F90189573
:1000900087E087BB15BE83E08ABB84E081BB80E438
:1000A0008BBF80E88FBF20E030E0C5E0D0E0E4E027
:1000B00041E0C901BE010E947800892B09F412BAFF
:1000C000E2BB48BB5FEF89E698E151508040904029
:1000D000E1F700C0000018BA5FEF89E698E15150DF
:1000E00080409040E1F700C000002F5F3F4FE1CF1C
:1000F00097FB072E16F4009407D077FD09D00E94D5
:100100008C0007FC05D03EF4909581959F4F089593
:10011000709561957F4F0895AA1BBB1B51E107C0E5
:10012000AA1FBB1FA617B70710F0A61BB70B881F87
:10013000991F5A95A9F780959095BC01CD01089516
:04014000F894FFCF61
:00000001FF
