:100000000C942A000C9434000C9434000C943400AA
:100010000C9434000C9434000C9434000C94340090
:100020000C9434000C9434000C9434000C9436007E
:100030000C9434000C9434000C9434000C94340070
:100040000C9434000C9434000C9434000C94340060
:100050000C94340011241FBECFE5D8E0DEBFCDBF25
:100060000E9449000C9460000C9400001F920F92B3
:100070000FB60F9211248F939F9398B381E0892735
:1000800088BB12BE9F918F910F900FBE0F901F9053
:1000900018958FEF87BB81E08ABB789489BF12BE29
:1000A00085E083BF91E08BB389278BBB2FEF39E6C7
:1000B00088E1215030408040E1F700C00000F3CFDC
:0400C000F894FFCFE2
:00000001FF
