:100000000C942A000C9434000C9434000C943400AA
:100010000C9434000C9434000C9434000C94340090
:100020000C9434000C9434000C9434000C9436007E
:100030000C9434000C9434000C9434000C94340070
:100040000C9434000C9434000C9434000C94340060
:100050000C94340011241FBECFE5D8E0DEBFCDBF25
:100060000E9453000C9469000C9400001F920F92A0
:100070000FB60F9211248F9381E08BBB8F910F905D
:100080000FBE0F901F9018951F920F920FB60F92F0
:1000900011248F9381E088BB12BE8F910F900FBE09
:1000A0000F901F90189581E08ABB12BE87BB85E038
:1000B00083BF83EC8CBF89B7826089BF78942FEFB0
:1000C00081E19AE7215080409040E1F700C00000B4
:0600D000F6CFF894FFCF0B
:00000001FF
