:100000000C942A000C9434000C9434000C943400AA
:100010000C9434000C9434000C9434000C94340090
:100020000C9434000C9434000C9434000C94340080
:100030000C9434000C9434000C9434000C94340070
:100040000C9434000C9434000C9434000C94340060
:100050000C94340011241FBECFE5D8E0DEBFCDBF25
:100060000E9436000C946E000C94000087E08ABB5E
:1000700031E022E094E03BBB4FE35DE063E04150C0
:1000800050406040E1F700C000002BBB4FE35DE053
:1000900063E0415050406040E1F700C000009BBB6E
:1000A0004FE35DE063E0415050406040E1F700C045
:1000B00000008BBB4FE35DE063E041505040604087
:1000C000E1F700C000001BBA4FE35DE063E0415080
:1000D00050406040E1F700C00000CDCFF894FFCF62
:00000001FF
